{
  "_format": "hh3-artifact-1",
  "contractName": "NFTMarketplace",
  "sourceName": "contracts/NFTMarketplace.sol",
  "abi": [
    {
      "inputs": [],
      "stateMutability": "nonpayable",
      "type": "constructor"
    },
    {
      "inputs": [
        {
          "internalType": "address",
          "name": "sender",
          "type": "address"
        },
        {
          "internalType": "uint256",
          "name": "tokenId",
          "type": "uint256"
        },
        {
          "internalType": "address",
          "name": "owner",
          "type": "address"
        }
      ],
      "name": "ERC721IncorrectOwner",
      "type": "error"
    },
    {
      "inputs": [
        {
          "internalType": "address",
          "name": "operator",
          "type": "address"
        },
        {
          "internalType": "uint256",
          "name": "tokenId",
          "type": "uint256"
        }
      ],
      "name": "ERC721InsufficientApproval",
      "type": "error"
    },
    {
      "inputs": [
        {
          "internalType": "address",
          "name": "approver",
          "type": "address"
        }
      ],
      "name": "ERC721InvalidApprover",
      "type": "error"
    },
    {
      "inputs": [
        {
          "internalType": "address",
          "name": "operator",
          "type": "address"
        }
      ],
      "name": "ERC721InvalidOperator",
      "type": "error"
    },
    {
      "inputs": [
        {
          "internalType": "address",
          "name": "owner",
          "type": "address"
        }
      ],
      "name": "ERC721InvalidOwner",
      "type": "error"
    },
    {
      "inputs": [
        {
          "internalType": "address",
          "name": "receiver",
          "type": "address"
        }
      ],
      "name": "ERC721InvalidReceiver",
      "type": "error"
    },
    {
      "inputs": [
        {
          "internalType": "address",
          "name": "sender",
          "type": "address"
        }
      ],
      "name": "ERC721InvalidSender",
      "type": "error"
    },
    {
      "inputs": [
        {
          "internalType": "uint256",
          "name": "tokenId",
          "type": "uint256"
        }
      ],
      "name": "ERC721NonexistentToken",
      "type": "error"
    },
    {
      "inputs": [
        {
          "internalType": "address",
          "name": "owner",
          "type": "address"
        }
      ],
      "name": "OwnableInvalidOwner",
      "type": "error"
    },
    {
      "inputs": [
        {
          "internalType": "address",
          "name": "account",
          "type": "address"
        }
      ],
      "name": "OwnableUnauthorizedAccount",
      "type": "error"
    },
    {
      "inputs": [],
      "name": "ReentrancyGuardReentrantCall",
      "type": "error"
    },
    {
      "anonymous": false,
      "inputs": [
        {
          "indexed": true,
          "internalType": "address",
          "name": "owner",
          "type": "address"
        },
        {
          "indexed": true,
          "internalType": "address",
          "name": "approved",
          "type": "address"
        },
        {
          "indexed": true,
          "internalType": "uint256",
          "name": "tokenId",
          "type": "uint256"
        }
      ],
      "name": "Approval",
      "type": "event"
    },
    {
      "anonymous": false,
      "inputs": [
        {
          "indexed": true,
          "internalType": "address",
          "name": "owner",
          "type": "address"
        },
        {
          "indexed": true,
          "internalType": "address",
          "name": "operator",
          "type": "address"
        },
        {
          "indexed": false,
          "internalType": "bool",
          "name": "approved",
          "type": "bool"
        }
      ],
      "name": "ApprovalForAll",
      "type": "event"
    },
    {
      "anonymous": false,
      "inputs": [
        {
          "indexed": false,
          "internalType": "uint256",
          "name": "_fromTokenId",
          "type": "uint256"
        },
        {
          "indexed": false,
          "internalType": "uint256",
          "name": "_toTokenId",
          "type": "uint256"
        }
      ],
      "name": "BatchMetadataUpdate",
      "type": "event"
    },
    {
      "anonymous": false,
      "inputs": [
        {
          "indexed": true,
          "internalType": "uint256",
          "name": "tokenId",
          "type": "uint256"
        },
        {
          "indexed": true,
          "internalType": "address",
          "name": "seller",
          "type": "address"
        },
        {
          "indexed": false,
          "internalType": "uint256",
          "name": "price",
          "type": "uint256"
        }
      ],
      "name": "ItemListed",
      "type": "event"
    },
    {
      "anonymous": false,
      "inputs": [
        {
          "indexed": true,
          "internalType": "uint256",
          "name": "tokenId",
          "type": "uint256"
        },
        {
          "indexed": true,
          "internalType": "address",
          "name": "seller",
          "type": "address"
        },
        {
          "indexed": true,
          "internalType": "address",
          "name": "buyer",
          "type": "address"
        },
        {
          "indexed": false,
          "internalType": "uint256",
          "name": "price",
          "type": "uint256"
        }
      ],
      "name": "ItemSold",
      "type": "event"
    },
    {
      "anonymous": false,
      "inputs": [
        {
          "indexed": false,
          "internalType": "uint256",
          "name": "_tokenId",
          "type": "uint256"
        }
      ],
      "name": "MetadataUpdate",
      "type": "event"
    },
    {
      "anonymous": false,
      "inputs": [
        {
          "indexed": true,
          "internalType": "uint256",
          "name": "tokenId",
          "type": "uint256"
        },
        {
          "indexed": true,
          "internalType": "address",
          "name": "owner",
          "type": "address"
        },
        {
          "indexed": false,
          "internalType": "string",
          "name": "tokenURI",
          "type": "string"
        }
      ],
      "name": "NFTMinted",
      "type": "event"
    },
    {
      "anonymous": false,
      "inputs": [
        {
          "indexed": true,
          "internalType": "address",
          "name": "previousOwner",
          "type": "address"
        },
        {
          "indexed": true,
          "internalType": "address",
          "name": "newOwner",
          "type": "address"
        }
      ],
      "name": "OwnershipTransferred",
      "type": "event"
    },
    {
      "anonymous": false,
      "inputs": [
        {
          "indexed": true,
          "internalType": "address",
          "name": "from",
          "type": "address"
        },
        {
          "indexed": true,
          "internalType": "address",
          "name": "to",
          "type": "address"
        },
        {
          "indexed": true,
          "internalType": "uint256",
          "name": "tokenId",
          "type": "uint256"
        }
      ],
      "name": "Transfer",
      "type": "event"
    },
    {
      "inputs": [
        {
          "internalType": "address",
          "name": "to",
          "type": "address"
        },
        {
          "internalType": "uint256",
          "name": "tokenId",
          "type": "uint256"
        }
      ],
      "name": "approve",
      "outputs": [],
      "stateMutability": "nonpayable",
      "type": "function"
    },
    {
      "inputs": [
        {
          "internalType": "address",
          "name": "owner",
          "type": "address"
        }
      ],
      "name": "balanceOf",
      "outputs": [
        {
          "internalType": "uint256",
          "name": "",
          "type": "uint256"
        }
      ],
      "stateMutability": "view",
      "type": "function"
    },
    {
      "inputs": [
        {
          "internalType": "uint256",
          "name": "tokenId",
          "type": "uint256"
        }
      ],
      "name": "buyItem",
      "outputs": [],
      "stateMutability": "payable",
      "type": "function"
    },
    {
      "inputs": [
        {
          "internalType": "uint256",
          "name": "tokenId",
          "type": "uint256"
        }
      ],
      "name": "getApproved",
      "outputs": [
        {
          "internalType": "address",
          "name": "",
          "type": "address"
        }
      ],
      "stateMutability": "view",
      "type": "function"
    },
    {
      "inputs": [
        {
          "internalType": "address",
          "name": "owner",
          "type": "address"
        },
        {
          "internalType": "address",
          "name": "operator",
          "type": "address"
        }
      ],
      "name": "isApprovedForAll",
      "outputs": [
        {
          "internalType": "bool",
          "name": "",
          "type": "bool"
        }
      ],
      "stateMutability": "view",
      "type": "function"
    },
    {
      "inputs": [
        {
          "internalType": "uint256",
          "name": "tokenId",
          "type": "uint256"
        },
        {
          "internalType": "uint256",
          "name": "price",
          "type": "uint256"
        }
      ],
      "name": "listItem",
      "outputs": [],
      "stateMutability": "nonpayable",
      "type": "function"
    },
    {
      "inputs": [
        {
          "internalType": "uint256",
          "name": "",
          "type": "uint256"
        }
      ],
      "name": "listings",
      "outputs": [
        {
          "internalType": "address",
          "name": "seller",
          "type": "address"
        },
        {
          "internalType": "uint256",
          "name": "price",
          "type": "uint256"
        },
        {
          "internalType": "bool",
          "name": "active",
          "type": "bool"
        }
      ],
      "stateMutability": "view",
      "type": "function"
    },
    {
      "inputs": [
        {
          "internalType": "string",
          "name": "tokenURI",
          "type": "string"
        }
      ],
      "name": "mintNFT",
      "outputs": [
        {
          "internalType": "uint256",
          "name": "",
          "type": "uint256"
        }
      ],
      "stateMutability": "nonpayable",
      "type": "function"
    },
    {
      "inputs": [],
      "name": "name",
      "outputs": [
        {
          "internalType": "string",
          "name": "",
          "type": "string"
        }
      ],
      "stateMutability": "view",
      "type": "function"
    },
    {
      "inputs": [],
      "name": "owner",
      "outputs": [
        {
          "internalType": "address",
          "name": "",
          "type": "address"
        }
      ],
      "stateMutability": "view",
      "type": "function"
    },
    {
      "inputs": [
        {
          "internalType": "uint256",
          "name": "tokenId",
          "type": "uint256"
        }
      ],
      "name": "ownerOf",
      "outputs": [
        {
          "internalType": "address",
          "name": "",
          "type": "address"
        }
      ],
      "stateMutability": "view",
      "type": "function"
    },
    {
      "inputs": [],
      "name": "renounceOwnership",
      "outputs": [],
      "stateMutability": "nonpayable",
      "type": "function"
    },
    {
      "inputs": [
        {
          "internalType": "address",
          "name": "from",
          "type": "address"
        },
        {
          "internalType": "address",
          "name": "to",
          "type": "address"
        },
        {
          "internalType": "uint256",
          "name": "tokenId",
          "type": "uint256"
        }
      ],
      "name": "safeTransferFrom",
      "outputs": [],
      "stateMutability": "nonpayable",
      "type": "function"
    },
    {
      "inputs": [
        {
          "internalType": "address",
          "name": "from",
          "type": "address"
        },
        {
          "internalType": "address",
          "name": "to",
          "type": "address"
        },
        {
          "internalType": "uint256",
          "name": "tokenId",
          "type": "uint256"
        },
        {
          "internalType": "bytes",
          "name": "data",
          "type": "bytes"
        }
      ],
      "name": "safeTransferFrom",
      "outputs": [],
      "stateMutability": "nonpayable",
      "type": "function"
    },
    {
      "inputs": [
        {
          "internalType": "address",
          "name": "operator",
          "type": "address"
        },
        {
          "internalType": "bool",
          "name": "approved",
          "type": "bool"
        }
      ],
      "name": "setApprovalForAll",
      "outputs": [],
      "stateMutability": "nonpayable",
      "type": "function"
    },
    {
      "inputs": [
        {
          "internalType": "bytes4",
          "name": "interfaceId",
          "type": "bytes4"
        }
      ],
      "name": "supportsInterface",
      "outputs": [
        {
          "internalType": "bool",
          "name": "",
          "type": "bool"
        }
      ],
      "stateMutability": "view",
      "type": "function"
    },
    {
      "inputs": [],
      "name": "symbol",
      "outputs": [
        {
          "internalType": "string",
          "name": "",
          "type": "string"
        }
      ],
      "stateMutability": "view",
      "type": "function"
    },
    {
      "inputs": [
        {
          "internalType": "uint256",
          "name": "tokenId",
          "type": "uint256"
        }
      ],
      "name": "tokenURI",
      "outputs": [
        {
          "internalType": "string",
          "name": "",
          "type": "string"
        }
      ],
      "stateMutability": "view",
      "type": "function"
    },
    {
      "inputs": [
        {
          "internalType": "address",
          "name": "from",
          "type": "address"
        },
        {
          "internalType": "address",
          "name": "to",
          "type": "address"
        },
        {
          "internalType": "uint256",
          "name": "tokenId",
          "type": "uint256"
        }
      ],
      "name": "transferFrom",
      "outputs": [],
      "stateMutability": "nonpayable",
      "type": "function"
    },
    {
      "inputs": [
        {
          "internalType": "address",
          "name": "newOwner",
          "type": "address"
        }
      ],
      "name": "transferOwnership",
      "outputs": [],
      "stateMutability": "nonpayable",
      "type": "function"
    }
  ],
  "bytecode": "0x608060405234801561000f575f5ffd5b50336040518060400160405280601481526020017f4d696e69204d61726b6574706c616365204e46540000000000000000000000008152506040518060400160405280600581526020017f4d4d4e4654000000000000000000000000000000000000000000000000000000815250815f908161008b9190610479565b50806001908161009b9190610479565b5050505f73ffffffffffffffffffffffffffffffffffffffff168173ffffffffffffffffffffffffffffffffffffffff160361010e575f6040517f1e4fbdf70000000000000000000000000000000000000000000000000000000081526004016101059190610587565b60405180910390fd5b61011d8161014760201b60201c565b50600161013c61013161020a60201b60201c565b61023360201b60201c565b5f01819055506105a0565b5f60075f9054906101000a900473ffffffffffffffffffffffffffffffffffffffff1690508160075f6101000a81548173ffffffffffffffffffffffffffffffffffffffff021916908373ffffffffffffffffffffffffffffffffffffffff1602179055508173ffffffffffffffffffffffffffffffffffffffff168173ffffffffffffffffffffffffffffffffffffffff167f8be0079c531659141344cd1fd0a4f28419497f9722a3daafe3b4186f6b6457e060405160405180910390a35050565b5f7f9b779b17422d0df92223018b32b4d1fa46e071723d6817e2486d003becc55f005f1b905090565b5f819050919050565b5f81519050919050565b7f4e487b71000000000000000000000000000000000000000000000000000000005f52604160045260245ffd5b7f4e487b71000000000000000000000000000000000000000000000000000000005f52602260045260245ffd5b5f60028204905060018216806102b757607f821691505b6020821081036102ca576102c9610273565b5b50919050565b5f819050815f5260205f209050919050565b5f6020601f8301049050919050565b5f82821b905092915050565b5f6008830261032c7fffffffffffffffffffffffffffffffffffffffffffffffffffffffffffffffff826102f1565b61033686836102f1565b95508019841693508086168417925050509392505050565b5f819050919050565b5f819050919050565b5f61037a6103756103708461034e565b610357565b61034e565b9050919050565b5f819050919050565b61039383610360565b6103a761039f82610381565b8484546102fd565b825550505050565b5f5f905090565b6103be6103af565b6103c981848461038a565b505050565b5b818110156103ec576103e15f826103b6565b6001810190506103cf565b5050565b601f82111561043157610402816102d0565b61040b846102e2565b8101602085101561041a578190505b61042e610426856102e2565b8301826103ce565b50505b505050565b5f82821c905092915050565b5f6104515f1984600802610436565b1980831691505092915050565b5f6104698383610442565b9150826002028217905092915050565b6104828261023c565b67ffffffffffffffff81111561049b5761049a610246565b5b6104a582546102a0565b6104b08282856103f0565b5f60209050601f8311600181146104e1575f84156104cf578287015190505b6104d9858261045e565b865550610540565b601f1984166104ef866102d0565b5f5b82811015610516578489015182556001820191506020850194506020810190506104f1565b86831015610533578489015161052f601f891682610442565b8355505b6001600288020188555050505b505050505050565b5f73ffffffffffffffffffffffffffffffffffffffff82169050919050565b5f61057182610548565b9050919050565b61058181610567565b82525050565b5f60208201905061059a5f830184610578565b92915050565b6133cd806105ad5f395ff3fe60806040526004361061011e575f3560e01c80638da5cb5b1161009f578063de74e57b11610063578063de74e57b146103d2578063e7fb74c714610410578063e985e9c51461042c578063f2fde38b14610468578063fb37e883146104905761011e565b80638da5cb5b146102f257806395d89b411461031c578063a22cb46514610346578063b88d4fde1461036e578063c87b56dd146103965761011e565b806342842e0e116100e657806342842e0e146102145780636352211e1461023c57806370a0823114610278578063715018a6146102b4578063883efa67146102ca5761011e565b806301ffc9a71461012257806306fdde031461015e578063081812fc14610188578063095ea7b3146101c457806323b872dd146101ec575b5f5ffd5b34801561012d575f5ffd5b5061014860048036038101906101439190612489565b6104cc565b60405161015591906124ce565b60405180910390f35b348015610169575f5ffd5b5061017261052c565b60405161017f9190612557565b60405180910390f35b348015610193575f5ffd5b506101ae60048036038101906101a991906125aa565b6105bb565b6040516101bb9190612614565b60405180910390f35b3480156101cf575f5ffd5b506101ea60048036038101906101e59190612657565b6105d6565b005b3480156101f7575f5ffd5b50610212600480360381019061020d9190612695565b6105ec565b005b34801561021f575f5ffd5b5061023a60048036038101906102359190612695565b6106eb565b005b348015610247575f5ffd5b50610262600480360381019061025d91906125aa565b61070a565b60405161026f9190612614565b60405180910390f35b348015610283575f5ffd5b5061029e600480360381019061029991906126e5565b61071b565b6040516102ab919061271f565b60405180910390f35b3480156102bf575f5ffd5b506102c86107d1565b005b3480156102d5575f5ffd5b506102f060048036038101906102eb9190612738565b6107e4565b005b3480156102fd575f5ffd5b506103066109a4565b6040516103139190612614565b60405180910390f35b348015610327575f5ffd5b506103306109cc565b60405161033d9190612557565b60405180910390f35b348015610351575f5ffd5b5061036c600480360381019061036791906127a0565b610a5c565b005b348015610379575f5ffd5b50610394600480360381019061038f919061290a565b610a72565b005b3480156103a1575f5ffd5b506103bc60048036038101906103b791906125aa565b610a97565b6040516103c99190612557565b60405180910390f35b3480156103dd575f5ffd5b506103f860048036038101906103f391906125aa565b610b13565b6040516104079392919061298a565b60405180910390f35b61042a600480360381019061042591906125aa565b610b64565b005b348015610437575f5ffd5b50610452600480360381019061044d91906129bf565b610ed5565b60405161045f91906124ce565b60405180910390f35b348015610473575f5ffd5b5061048e600480360381019061048991906126e5565b610f63565b005b34801561049b575f5ffd5b506104b660048036038101906104b19190612a9b565b610fe7565b6040516104c3919061271f565b60405180910390f35b5f634906490660e01b7bffffffffffffffffffffffffffffffffffffffffffffffffffffffff1916827bffffffffffffffffffffffffffffffffffffffffffffffffffffffff191614806105255750610524826110b4565b5b9050919050565b60605f805461053a90612b0f565b80601f016020809104026020016040519081016040528092919081815260200182805461056690612b0f565b80156105b15780601f10610588576101008083540402835291602001916105b1565b820191905f5260205f20905b81548152906001019060200180831161059457829003601f168201915b5050505050905090565b5f6105c582611195565b506105cf8261121b565b9050919050565b6105e882826105e3611254565b61125b565b5050565b5f73ffffffffffffffffffffffffffffffffffffffff168273ffffffffffffffffffffffffffffffffffffffff160361065c575f6040517f64a0ae920000000000000000000000000000000000000000000000000000000081526004016106539190612614565b60405180910390fd5b5f61066f838361066a611254565b61126d565b90508373ffffffffffffffffffffffffffffffffffffffff168173ffffffffffffffffffffffffffffffffffffffff16146106e5578382826040517f64283d7b0000000000000000000000000000000000000000000000000000000081526004016106dc93929190612b3f565b60405180910390fd5b50505050565b61070583838360405180602001604052805f815250610a72565b505050565b5f61071482611195565b9050919050565b5f5f73ffffffffffffffffffffffffffffffffffffffff168273ffffffffffffffffffffffffffffffffffffffff160361078c575f6040517f89c62b640000000000000000000000000000000000000000000000000000000081526004016107839190612614565b60405180910390fd5b60035f8373ffffffffffffffffffffffffffffffffffffffff1673ffffffffffffffffffffffffffffffffffffffff1681526020019081526020015f20549050919050565b6107d9611478565b6107e25f6114ff565b565b3373ffffffffffffffffffffffffffffffffffffffff166108048361070a565b73ffffffffffffffffffffffffffffffffffffffff161461085a576040517f08c379a000000000000000000000000000000000000000000000000000000000815260040161085190612bbe565b60405180910390fd5b5f811161089c576040517f08c379a000000000000000000000000000000000000000000000000000000000815260040161089390612c26565b60405180910390fd5b60405180606001604052803373ffffffffffffffffffffffffffffffffffffffff1681526020018281526020016001151581525060095f8481526020019081526020015f205f820151815f015f6101000a81548173ffffffffffffffffffffffffffffffffffffffff021916908373ffffffffffffffffffffffffffffffffffffffff160217905550602082015181600101556040820151816002015f6101000a81548160ff0219169083151502179055509050503373ffffffffffffffffffffffffffffffffffffffff16827fc93edc6ee14cd6c0c2842099adfa8953b237dbdad304ba28e96dce8a7f2a828c83604051610998919061271f565b60405180910390a35050565b5f60075f9054906101000a900473ffffffffffffffffffffffffffffffffffffffff16905090565b6060600180546109db90612b0f565b80601f0160208091040260200160405190810160405280929190818152602001828054610a0790612b0f565b8015610a525780601f10610a2957610100808354040283529160200191610a52565b820191905f5260205f20905b815481529060010190602001808311610a3557829003601f168201915b5050505050905090565b610a6e610a67611254565b83836115c2565b5050565b610a7d8484846105ec565b610a91610a88611254565b8585858561179b565b50505050565b6060610aa282611195565b505f610aac611947565b90505f610ab88461195d565b90505f825103610acc578092505050610b0e565b5f81511115610b00578181604051602001610ae8929190612c7e565b60405160208183030381529060405292505050610b0e565b610b09846119fe565b925050505b919050565b6009602052805f5260405f205f91509050805f015f9054906101000a900473ffffffffffffffffffffffffffffffffffffffff1690806001015490806002015f9054906101000a900460ff16905083565b610b6c611a64565b5f60095f8381526020019081526020015f209050806002015f9054906101000a900460ff16610bd0576040517f08c379a0000000000000000000000000000000000000000000000000000000008152600401610bc790612ceb565b60405180910390fd5b8060010154341015610c17576040517f08c379a0000000000000000000000000000000000000000000000000000000008152600401610c0e90612d53565b60405180910390fd5b805f015f9054906101000a900473ffffffffffffffffffffffffffffffffffffffff1673ffffffffffffffffffffffffffffffffffffffff163373ffffffffffffffffffffffffffffffffffffffff1603610ca7576040517f08c379a0000000000000000000000000000000000000000000000000000000008152600401610c9e90612dbb565b60405180910390fd5b5f815f015f9054906101000a900473ffffffffffffffffffffffffffffffffffffffff1690505f826001015490505f836002015f6101000a81548160ff021916908315150217905550610cfb823386611a86565b5f8273ffffffffffffffffffffffffffffffffffffffff1682604051610d2090612e06565b5f6040518083038185875af1925050503d805f8114610d5a576040519150601f19603f3d011682016040523d82523d5f602084013e610d5f565b606091505b5050905080610da3576040517f08c379a0000000000000000000000000000000000000000000000000000000008152600401610d9a90612e64565b60405180910390fd5b81341115610e60575f3373ffffffffffffffffffffffffffffffffffffffff168334610dcf9190612eaf565b604051610ddb90612e06565b5f6040518083038185875af1925050503d805f8114610e15576040519150601f19603f3d011682016040523d82523d5f602084013e610e1a565b606091505b5050905080610e5e576040517f08c379a0000000000000000000000000000000000000000000000000000000008152600401610e5590612f2c565b60405180910390fd5b505b3373ffffffffffffffffffffffffffffffffffffffff168373ffffffffffffffffffffffffffffffffffffffff16867f04ddd54c6b746e69ba87f862311f7670bd1d7276846778ac81cd38747b27a74685604051610ebe919061271f565b60405180910390a450505050610ed2611bee565b50565b5f60055f8473ffffffffffffffffffffffffffffffffffffffff1673ffffffffffffffffffffffffffffffffffffffff1681526020019081526020015f205f8373ffffffffffffffffffffffffffffffffffffffff1673ffffffffffffffffffffffffffffffffffffffff1681526020019081526020015f205f9054906101000a900460ff16905092915050565b610f6b611478565b5f73ffffffffffffffffffffffffffffffffffffffff168173ffffffffffffffffffffffffffffffffffffffff1603610fdb575f6040517f1e4fbdf7000000000000000000000000000000000000000000000000000000008152600401610fd29190612614565b60405180910390fd5b610fe4816114ff565b50565b5f5f82511161102b576040517f08c379a000000000000000000000000000000000000000000000000000000000815260040161102290612f94565b60405180910390fd5b60085f81548092919061103d90612fb2565b91905055505f60085490506110523382611c08565b61105c8184611c25565b3373ffffffffffffffffffffffffffffffffffffffff16817f06becd955c918828f6e985541acbf49cc842c9e9bd569fffc7698e721ef13575856040516110a39190612557565b60405180910390a380915050919050565b5f7f80ac58cd000000000000000000000000000000000000000000000000000000007bffffffffffffffffffffffffffffffffffffffffffffffffffffffff1916827bffffffffffffffffffffffffffffffffffffffffffffffffffffffff1916148061117e57507f5b5e139f000000000000000000000000000000000000000000000000000000007bffffffffffffffffffffffffffffffffffffffffffffffffffffffff1916827bffffffffffffffffffffffffffffffffffffffffffffffffffffffff1916145b8061118e575061118d82611c7f565b5b9050919050565b5f5f6111a083611ce8565b90505f73ffffffffffffffffffffffffffffffffffffffff168173ffffffffffffffffffffffffffffffffffffffff160361121257826040517f7e273289000000000000000000000000000000000000000000000000000000008152600401611209919061271f565b60405180910390fd5b80915050919050565b5f60045f8381526020019081526020015f205f9054906101000a900473ffffffffffffffffffffffffffffffffffffffff169050919050565b5f33905090565b6112688383836001611d21565b505050565b5f5f61127884611ce8565b90505f73ffffffffffffffffffffffffffffffffffffffff168373ffffffffffffffffffffffffffffffffffffffff16146112b9576112b8818486611ee0565b5b5f73ffffffffffffffffffffffffffffffffffffffff168173ffffffffffffffffffffffffffffffffffffffff1614611344576112f85f855f5f611d21565b600160035f8373ffffffffffffffffffffffffffffffffffffffff1673ffffffffffffffffffffffffffffffffffffffff1681526020019081526020015f205f82825403925050819055505b5f73ffffffffffffffffffffffffffffffffffffffff168573ffffffffffffffffffffffffffffffffffffffff16146113c357600160035f8773ffffffffffffffffffffffffffffffffffffffff1673ffffffffffffffffffffffffffffffffffffffff1681526020019081526020015f205f82825401925050819055505b8460025f8681526020019081526020015f205f6101000a81548173ffffffffffffffffffffffffffffffffffffffff021916908373ffffffffffffffffffffffffffffffffffffffff160217905550838573ffffffffffffffffffffffffffffffffffffffff168273ffffffffffffffffffffffffffffffffffffffff167fddf252ad1be2c89b69c2b068fc378daa952ba7f163c4a11628f55a4df523b3ef60405160405180910390a4809150509392505050565b611480611254565b73ffffffffffffffffffffffffffffffffffffffff1661149e6109a4565b73ffffffffffffffffffffffffffffffffffffffff16146114fd576114c1611254565b6040517f118cdaa70000000000000000000000000000000000000000000000000000000081526004016114f49190612614565b60405180910390fd5b565b5f60075f9054906101000a900473ffffffffffffffffffffffffffffffffffffffff1690508160075f6101000a81548173ffffffffffffffffffffffffffffffffffffffff021916908373ffffffffffffffffffffffffffffffffffffffff1602179055508173ffffffffffffffffffffffffffffffffffffffff168173ffffffffffffffffffffffffffffffffffffffff167f8be0079c531659141344cd1fd0a4f28419497f9722a3daafe3b4186f6b6457e060405160405180910390a35050565b5f73ffffffffffffffffffffffffffffffffffffffff168373ffffffffffffffffffffffffffffffffffffffff1603611632575f6040517fa9fbf51f0000000000000000000000000000000000000000000000000000000081526004016116299190612614565b60405180910390fd5b5f73ffffffffffffffffffffffffffffffffffffffff168273ffffffffffffffffffffffffffffffffffffffff16036116a257816040517f5b08ba180000000000000000000000000000000000000000000000000000000081526004016116999190612614565b60405180910390fd5b8060055f8573ffffffffffffffffffffffffffffffffffffffff1673ffffffffffffffffffffffffffffffffffffffff1681526020019081526020015f205f8473ffffffffffffffffffffffffffffffffffffffff1673ffffffffffffffffffffffffffffffffffffffff1681526020019081526020015f205f6101000a81548160ff0219169083151502179055508173ffffffffffffffffffffffffffffffffffffffff168373ffffffffffffffffffffffffffffffffffffffff167f17307eab39ab6107e8899845ad3d59bd9653f200f220920489ca2b5937696c318360405161178e91906124ce565b60405180910390a3505050565b5f8373ffffffffffffffffffffffffffffffffffffffff163b1115611940578273ffffffffffffffffffffffffffffffffffffffff1663150b7a02868685856040518563ffffffff1660e01b81526004016117f9949392919061304b565b6020604051808303815f875af192505050801561183457506040513d601f19601f8201168201806040525081019061183191906130a9565b60015b6118b5573d805f8114611862576040519150601f19603f3d011682016040523d82523d5f602084013e611867565b606091505b505f8151036118ad57836040517f64a0ae920000000000000000000000000000000000000000000000000000000081526004016118a49190612614565b60405180910390fd5b805160208201fd5b63150b7a0260e01b7bffffffffffffffffffffffffffffffffffffffffffffffffffffffff1916817bffffffffffffffffffffffffffffffffffffffffffffffffffffffff19161461193e57836040517f64a0ae920000000000000000000000000000000000000000000000000000000081526004016119359190612614565b60405180910390fd5b505b5050505050565b606060405180602001604052805f815250905090565b606060065f8381526020019081526020015f20805461197b90612b0f565b80601f01602080910402602001604051908101604052809291908181526020018280546119a790612b0f565b80156119f25780601f106119c9576101008083540402835291602001916119f2565b820191905f5260205f20905b8154815290600101906020018083116119d557829003601f168201915b50505050509050919050565b6060611a0982611195565b505f611a13611947565b90505f815111611a315760405180602001604052805f815250611a5c565b80611a3b84611fa3565b604051602001611a4c929190612c7e565b6040516020818303038152906040525b915050919050565b611a6c61206d565b6002611a7e611a796120ae565b6120d7565b5f0181905550565b5f73ffffffffffffffffffffffffffffffffffffffff168273ffffffffffffffffffffffffffffffffffffffff1603611af6575f6040517f64a0ae92000000000000000000000000000000000000000000000000000000008152600401611aed9190612614565b60405180910390fd5b5f611b0283835f61126d565b90505f73ffffffffffffffffffffffffffffffffffffffff168173ffffffffffffffffffffffffffffffffffffffff1603611b7457816040517f7e273289000000000000000000000000000000000000000000000000000000008152600401611b6b919061271f565b60405180910390fd5b8373ffffffffffffffffffffffffffffffffffffffff168173ffffffffffffffffffffffffffffffffffffffff1614611be8578382826040517f64283d7b000000000000000000000000000000000000000000000000000000008152600401611bdf93929190612b3f565b60405180910390fd5b50505050565b6001611c00611bfb6120ae565b6120d7565b5f0181905550565b611c21828260405180602001604052805f8152506120e0565b5050565b8060065f8481526020019081526020015f209081611c439190613274565b507ff8e1a15aba9398e019f0b49df1a4fde98ee17ae345cb5f6b5e2c27f5033e8ce782604051611c73919061271f565b60405180910390a15050565b5f7f01ffc9a7000000000000000000000000000000000000000000000000000000007bffffffffffffffffffffffffffffffffffffffffffffffffffffffff1916827bffffffffffffffffffffffffffffffffffffffffffffffffffffffff1916149050919050565b5f60025f8381526020019081526020015f205f9054906101000a900473ffffffffffffffffffffffffffffffffffffffff169050919050565b8080611d5957505f73ffffffffffffffffffffffffffffffffffffffff168273ffffffffffffffffffffffffffffffffffffffff1614155b15611e8b575f611d6884611195565b90505f73ffffffffffffffffffffffffffffffffffffffff168373ffffffffffffffffffffffffffffffffffffffff1614158015611dd257508273ffffffffffffffffffffffffffffffffffffffff168173ffffffffffffffffffffffffffffffffffffffff1614155b8015611de55750611de38184610ed5565b155b15611e2757826040517fa9fbf51f000000000000000000000000000000000000000000000000000000008152600401611e1e9190612614565b60405180910390fd5b8115611e8957838573ffffffffffffffffffffffffffffffffffffffff168273ffffffffffffffffffffffffffffffffffffffff167f8c5be1e5ebec7d5bd14f71427d1e84f3dd0314c0f7b2291e5b200ac8c7c3b92560405160405180910390a45b505b8360045f8581526020019081526020015f205f6101000a81548173ffffffffffffffffffffffffffffffffffffffff021916908373ffffffffffffffffffffffffffffffffffffffff16021790555050505050565b611eeb838383612103565b611f9e575f73ffffffffffffffffffffffffffffffffffffffff168373ffffffffffffffffffffffffffffffffffffffff1603611f5f57806040517f7e273289000000000000000000000000000000000000000000000000000000008152600401611f56919061271f565b60405180910390fd5b81816040517f177e802f000000000000000000000000000000000000000000000000000000008152600401611f95929190613343565b60405180910390fd5b505050565b60605f6001611fb1846121c3565b0190505f8167ffffffffffffffff811115611fcf57611fce6127e6565b5b6040519080825280601f01601f1916602001820160405280156120015781602001600182028036833780820191505090505b5090505f82602083010190505b600115612062578080600190039150507f3031323334353637383961626364656600000000000000000000000000000000600a86061a8153600a85816120575761205661336a565b5b0494505f850361200e575b819350505050919050565b612075612314565b156120ac576040517f3ee5aeb500000000000000000000000000000000000000000000000000000000815260040160405180910390fd5b565b5f7f9b779b17422d0df92223018b32b4d1fa46e071723d6817e2486d003becc55f005f1b905090565b5f819050919050565b6120ea8383612330565b6120fe6120f5611254565b5f85858561179b565b505050565b5f5f73ffffffffffffffffffffffffffffffffffffffff168373ffffffffffffffffffffffffffffffffffffffff16141580156121ba57508273ffffffffffffffffffffffffffffffffffffffff168473ffffffffffffffffffffffffffffffffffffffff16148061217b575061217a8484610ed5565b5b806121b957508273ffffffffffffffffffffffffffffffffffffffff166121a18361121b565b73ffffffffffffffffffffffffffffffffffffffff16145b5b90509392505050565b5f5f5f90507a184f03e93ff9f4daa797ed6e38ed64bf6a1f010000000000000000831061221f577a184f03e93ff9f4daa797ed6e38ed64bf6a1f01000000000000000083816122155761221461336a565b5b0492506040810190505b6d04ee2d6d415b85acef8100000000831061225c576d04ee2d6d415b85acef810000000083816122525761225161336a565b5b0492506020810190505b662386f26fc10000831061228b57662386f26fc1000083816122815761228061336a565b5b0492506010810190505b6305f5e10083106122b4576305f5e10083816122aa576122a961336a565b5b0492506008810190505b61271083106122d95761271083816122cf576122ce61336a565b5b0492506004810190505b606483106122fc57606483816122f2576122f161336a565b5b0492506002810190505b600a831061230b576001810190505b80915050919050565b5f60026123276123226120ae565b6120d7565b5f015414905090565b5f73ffffffffffffffffffffffffffffffffffffffff168273ffffffffffffffffffffffffffffffffffffffff16036123a0575f6040517f64a0ae920000000000000000000000000000000000000000000000000000000081526004016123979190612614565b60405180910390fd5b5f6123ac83835f61126d565b90505f73ffffffffffffffffffffffffffffffffffffffff168173ffffffffffffffffffffffffffffffffffffffff161461241e575f6040517f73c6ac6e0000000000000000000000000000000000000000000000000000000081526004016124159190612614565b60405180910390fd5b505050565b5f604051905090565b5f5ffd5b5f5ffd5b5f7fffffffff0000000000000000000000000000000000000000000000000000000082169050919050565b61246881612434565b8114612472575f5ffd5b50565b5f813590506124838161245f565b92915050565b5f6020828403121561249e5761249d61242c565b5b5f6124ab84828501612475565b91505092915050565b5f8115159050919050565b6124c8816124b4565b82525050565b5f6020820190506124e15f8301846124bf565b92915050565b5f81519050919050565b5f82825260208201905092915050565b8281835e5f83830152505050565b5f601f19601f8301169050919050565b5f612529826124e7565b61253381856124f1565b9350612543818560208601612501565b61254c8161250f565b840191505092915050565b5f6020820190508181035f83015261256f818461251f565b905092915050565b5f819050919050565b61258981612577565b8114612593575f5ffd5b50565b5f813590506125a481612580565b92915050565b5f602082840312156125bf576125be61242c565b5b5f6125cc84828501612596565b91505092915050565b5f73ffffffffffffffffffffffffffffffffffffffff82169050919050565b5f6125fe826125d5565b9050919050565b61260e816125f4565b82525050565b5f6020820190506126275f830184612605565b92915050565b612636816125f4565b8114612640575f5ffd5b50565b5f813590506126518161262d565b92915050565b5f5f6040838503121561266d5761266c61242c565b5b5f61267a85828601612643565b925050602061268b85828601612596565b9150509250929050565b5f5f5f606084860312156126ac576126ab61242c565b5b5f6126b986828701612643565b93505060206126ca86828701612643565b92505060406126db86828701612596565b9150509250925092565b5f602082840312156126fa576126f961242c565b5b5f61270784828501612643565b91505092915050565b61271981612577565b82525050565b5f6020820190506127325f830184612710565b92915050565b5f5f6040838503121561274e5761274d61242c565b5b5f61275b85828601612596565b925050602061276c85828601612596565b9150509250929050565b61277f816124b4565b8114612789575f5ffd5b50565b5f8135905061279a81612776565b92915050565b5f5f604083850312156127b6576127b561242c565b5b5f6127c385828601612643565b92505060206127d48582860161278c565b9150509250929050565b5f5ffd5b5f5ffd5b7f4e487b71000000000000000000000000000000000000000000000000000000005f52604160045260245ffd5b61281c8261250f565b810181811067ffffffffffffffff8211171561283b5761283a6127e6565b5b80604052505050565b5f61284d612423565b90506128598282612813565b919050565b5f67ffffffffffffffff821115612878576128776127e6565b5b6128818261250f565b9050602081019050919050565b828183375f83830152505050565b5f6128ae6128a98461285e565b612844565b9050828152602081018484840111156128ca576128c96127e2565b5b6128d584828561288e565b509392505050565b5f82601f8301126128f1576128f06127de565b5b813561290184826020860161289c565b91505092915050565b5f5f5f5f608085870312156129225761292161242c565b5b5f61292f87828801612643565b945050602061294087828801612643565b935050604061295187828801612596565b925050606085013567ffffffffffffffff81111561297257612971612430565b5b61297e878288016128dd565b91505092959194509250565b5f60608201905061299d5f830186612605565b6129aa6020830185612710565b6129b760408301846124bf565b949350505050565b5f5f604083850312156129d5576129d461242c565b5b5f6129e285828601612643565b92505060206129f385828601612643565b9150509250929050565b5f67ffffffffffffffff821115612a1757612a166127e6565b5b612a208261250f565b9050602081019050919050565b5f612a3f612a3a846129fd565b612844565b905082815260208101848484011115612a5b57612a5a6127e2565b5b612a6684828561288e565b509392505050565b5f82601f830112612a8257612a816127de565b5b8135612a92848260208601612a2d565b91505092915050565b5f60208284031215612ab057612aaf61242c565b5b5f82013567ffffffffffffffff811115612acd57612acc612430565b5b612ad984828501612a6e565b91505092915050565b7f4e487b71000000000000000000000000000000000000000000000000000000005f52602260045260245ffd5b5f6002820490506001821680612b2657607f821691505b602082108103612b3957612b38612ae2565b5b50919050565b5f606082019050612b525f830186612605565b612b5f6020830185612710565b612b6c6040830184612605565b949350505050565b7f4f6e6c79206f776e65722063616e206c697374206974656d00000000000000005f82015250565b5f612ba86018836124f1565b9150612bb382612b74565b602082019050919050565b5f6020820190508181035f830152612bd581612b9c565b9050919050565b7f5072696365206d7573742062652067726561746572207468616e207a65726f005f82015250565b5f612c10601f836124f1565b9150612c1b82612bdc565b602082019050919050565b5f6020820190508181035f830152612c3d81612c04565b9050919050565b5f81905092915050565b5f612c58826124e7565b612c628185612c44565b9350612c72818560208601612501565b80840191505092915050565b5f612c898285612c4e565b9150612c958284612c4e565b91508190509392505050565b7f4974656d206973206e6f74206c697374656400000000000000000000000000005f82015250565b5f612cd56012836124f1565b9150612ce082612ca1565b602082019050919050565b5f6020820190508181035f830152612d0281612cc9565b9050919050565b7f496e73756666696369656e74207061796d656e740000000000000000000000005f82015250565b5f612d3d6014836124f1565b9150612d4882612d09565b602082019050919050565b5f6020820190508181035f830152612d6a81612d31565b9050919050565b7f53656c6c65722063616e6e6f7420627579206f776e206974656d0000000000005f82015250565b5f612da5601a836124f1565b9150612db082612d71565b602082019050919050565b5f6020820190508181035f830152612dd281612d99565b9050919050565b5f81905092915050565b50565b5f612df15f83612dd9565b9150612dfc82612de3565b5f82019050919050565b5f612e1082612de6565b9150819050919050565b7f5061796d656e74207472616e73666572206661696c65640000000000000000005f82015250565b5f612e4e6017836124f1565b9150612e5982612e1a565b602082019050919050565b5f6020820190508181035f830152612e7b81612e42565b9050919050565b7f4e487b71000000000000000000000000000000000000000000000000000000005f52601160045260245ffd5b5f612eb982612577565b9150612ec483612577565b9250828203905081811115612edc57612edb612e82565b5b92915050565b7f526566756e64206661696c6564000000000000000000000000000000000000005f82015250565b5f612f16600d836124f1565b9150612f2182612ee2565b602082019050919050565b5f6020820190508181035f830152612f4381612f0a565b9050919050565b7f546f6b656e2055524920697320726571756972656400000000000000000000005f82015250565b5f612f7e6015836124f1565b9150612f8982612f4a565b602082019050919050565b5f6020820190508181035f830152612fab81612f72565b9050919050565b5f612fbc82612577565b91507fffffffffffffffffffffffffffffffffffffffffffffffffffffffffffffffff8203612fee57612fed612e82565b5b600182019050919050565b5f81519050919050565b5f82825260208201905092915050565b5f61301d82612ff9565b6130278185613003565b9350613037818560208601612501565b6130408161250f565b840191505092915050565b5f60808201905061305e5f830187612605565b61306b6020830186612605565b6130786040830185612710565b818103606083015261308a8184613013565b905095945050505050565b5f815190506130a38161245f565b92915050565b5f602082840312156130be576130bd61242c565b5b5f6130cb84828501613095565b91505092915050565b5f819050815f5260205f209050919050565b5f6020601f8301049050919050565b5f82821b905092915050565b5f600883026131307fffffffffffffffffffffffffffffffffffffffffffffffffffffffffffffffff826130f5565b61313a86836130f5565b95508019841693508086168417925050509392505050565b5f819050919050565b5f61317561317061316b84612577565b613152565b612577565b9050919050565b5f819050919050565b61318e8361315b565b6131a261319a8261317c565b848454613101565b825550505050565b5f5f905090565b6131b96131aa565b6131c4818484613185565b505050565b5b818110156131e7576131dc5f826131b1565b6001810190506131ca565b5050565b601f82111561322c576131fd816130d4565b613206846130e6565b81016020851015613215578190505b613229613221856130e6565b8301826131c9565b50505b505050565b5f82821c905092915050565b5f61324c5f1984600802613231565b1980831691505092915050565b5f613264838361323d565b9150826002028217905092915050565b61327d826124e7565b67ffffffffffffffff811115613296576132956127e6565b5b6132a08254612b0f565b6132ab8282856131eb565b5f60209050601f8311600181146132dc575f84156132ca578287015190505b6132d48582613259565b86555061333b565b601f1984166132ea866130d4565b5f5b82811015613311578489015182556001820191506020850194506020810190506132ec565b8683101561332e578489015161332a601f89168261323d565b8355505b6001600288020188555050505b505050505050565b5f6040820190506133565f830185612605565b6133636020830184612710565b9392505050565b7f4e487b71000000000000000000000000000000000000000000000000000000005f52601260045260245ffdfea2646970667358221220a3b4325f0c100408ed7dae6caf775a2cb30523a9cd5e6ad504ea261b3129e1dc64736f6c634300081c0033",
  "linkReferences": {},
  "deployedLinkReferences": {},
  "immutableReferences": {},
  "inputSourceName": "project/contracts/NFTMarketplace.sol",
  "buildInfoId": "solc-0_8_28-e556539a91da7f4fa7295cd3b43e58cb7024e3c5"
}